:020000040800F2
:10000000682700206503000873570008C94E0008E0
:10001000715700085D1E0008D77F0008000000002F
:10002000000000000000000000000000F15C00087B
:10003000D51E000800000000095B0008FD5C0008F8
:100040007F0300087F0300087F0300087F03000888
:100050007F0300087F0300087F0300087F03000878
:100060007F0300087F0300087F0300087F03000868
:100070007F0300087F0300087F0300087F03000858
:100080007F0300087F0300087F0300087F03000848
:10009000697F00087F0300087F0300087F030008D2
:1000A0007F0300087F0300087F0300087F03000828
:1000B0007F0300087D5D00087F0300087F030008C0
:1000C0007F0300087F0300087F0300087F03000808
:1000D0007F0300087F0300087F0300087F030008F8
:1000E0007F0300087F0300087F0300087F030008E8
:1000F0007F0300087F0300087F0300087F030008D8
:100100007F0300087F0300087F0300087F030008C7
:100110007F0300087F0300087F0300087F030008B7
:100120007F0300087F0300087F0300087F030008A7
:100130007F0300087F0300087F0300087F03000897
:100140007F0300087F0300087F0300087F03000887
:100150007F0300087F0300087F0300087F03000877
:100160007F0300087F0300087F0300087F03000867
:100170007F0300087F0300087F0300087F03000857
:100180007F0300087F0300087F0300087F03000847
:100190007F030008000000007F0300087F030008C1
:1001A0007F0300087F0300087F0300087F03000827
:1001B0007F0300087F0300087F0300087F03000817
:1001C0007F0300087F0300087F0300087F03000807
:1001D0007F0300087F03000800F002F800F0B2F887
:1001E0000AA090E8000C82448344AAF10107DA4592
:1001F00001D100F0A7F8AFF2090EBAE80F0013F032
:10020000010F18BFFB1A43F001031847F8810000E3
:10021000188200000A444FF0000C10F8013B13F064
:10022000070408BF10F8014B1D1108BF10F8015B4F
:10023000641E05D010F8016B641E01F8016BF9D142
:1002400013F0080F1EBF10F8014BAD1C0C1B09D199
:100250006D1E58BF01F801CBFAD505E014F8016B0B
:1002600001F8016B6D1EF9D59142D6D3704700009D
:100270000023002400250026103A28BF78C1FBD8AF
:10028000520728BF30C148BF0B6070476E2900F08D
:10029000E381702900F02D83662908F0118065291B
:1002A00008F00E80672908F00B80612908F00A80A9
:1002B00003681B0A28BF41F08001692900F0908182
:1002C000642900F08D81752900F08A816F2900F082
:1002D000BA82782900F0F982E92900F05582E429F0
:1002E00000F05282F52900F04F82EF2900F0B7822A
:1002F000F82900F0F8820368DB0928BF41F080018B
:10030000632900F0FB87732901F00080E32901F0E5
:100310000B80F32901F01080002070471FB507F013
:10032000CAFF01F05BF804000020002107F036FF4F
:10033000401C60600020002107F01AFFE0601FBD34
:1003400010B510BD01F01CF81146FFF7E7FF07F0EC
:1003500077FE01F0F9F803B4FFF7F2FF03BC01F0F8
:1003600041F900000948804709480047FEE7FEE7D9
:10037000FEE7FEE7FEE7FEE7FEE7FEE7FEE7FEE755
:1003800004480549054A064B704700006D5D0008AA
:10039000D901000868210020682700206823002078
:1003A0006823002053EA020C00F069802DE9F04B2D
:1003B0004FF00006002B1FBFB3FA83F503FA05F4D4
:1003C00024FA05F65E4012BF1643B2FA82F502FA2D
:1003D00005F4C5F120051EBF22FA05FC44EA0C0411
:1003E000203556EA044C4FEA144418BF641C4FF001
:1003F00000084FF00009904271EB030C39D300293B
:1004000019BFB1FA81F701FA07F6B0FA80F700FADE
:1004100007F6C7F120071EBF20FA07FC46EA0C06C4
:100420002037B6FBF4FCA7EB0507103F07F01F0BC6
:10043000CBF120060CFA0BFB2CFA06F644BFB346B0
:100440000026202FA4BF5E464FF0000B5BEA060C8F
:1004500008BF4FF0010B19EB0B09ABFB027C48EB1B
:100460000608C01B06FB02CC0BFB03CC71EB0C0196
:10047000C1E70B46024641464846BDE8F08B13B53E
:100480004FF000004FF00001AFF30080BDE81C40CA
:10049000704700007CB51D4616460C00009001D048
:1004A0002044401E074B7B442A4669460190304653
:1004B00000F0EBF805461CB10020694600F0F8F8A2
:1004C00028467CBD110200004FF0000200B5134623
:1004D00094469646203922BFA0E80C50A0E80C5064
:1004E000B1F12001BFF4F7AF090728BFA0E80C5015
:1004F00048BF0CC05DF804EB890028BF40F8042B0E
:1005000008BF704748BF20F8022B11F0804F18BF7A
:1005100000F8012B704770477047704770B504466C
:1005200085690068C10601D5302600E02026C00795
:1005300007D070BDD4E9012130469047206A401CA5
:1005400020626D1EF6D570BD70B5044685690078D1
:10055000C00707D170BDD4E9012120209047206A4F
:10056000401C20626D1EF6D570BD09684A0501D594
:1005700040B27047C905FCD500B2704709684A050A
:1005800001D5C0B27047C905FCD580B2704770B5BF
:100590000C460546012A05D02878800600D5EA6970
:1005A000002302E0012305E05B1C934202D2E05CE1
:1005B0000028F9D1A869E618C01AA861286A184469
:1005C00028622846FFF7AAFF04E0D5E9012114F8C4
:1005D000010B9047B442F8D32846FFF7B5FF70BD32
:1005E0002DE9F0410646002410687529314616A50C
:1005F00010D0FFF7BAFF002802DA404213A507E047
:1006000031688A0701D512A502E0490704D511A572
:10061000012401E0FFF7B2FF00210A2206F12407BE
:1006200009E0B0FBF2FCB0FBF2F302FB1C0030303F
:1006300078541846491C0028F3D123462A463046F0
:10064000BDE8F04100F069BA000000002D00000094
:100650002B0000002000000011680268006A5305AA
:1006600001D508700AE0D30501D5088006E013061D
:1006700003D5C217C1E9000200E0086001207047FD
:1006800001694A1C02610878704700B58FB0CDE956
:1006900001310021059105497944CDE90310114646
:1006A000684600F031F90FB000BD0000E5FFFFFF24
:1006B0000A6802F8010B0A607047D1E900239A42E8
:1006C00002D2531C0B601070704700002DE9FF5FD1
:1006D00015468A460446DFF8AC80F8440027D8E97E
:1006E00000103E46CDE9001010E03AF816106A46B8
:1006F00002A800F025FE411C07D02178890603D509
:10070000E269391891420DD80744761C207880069A
:1007100002D5E069B84205DDAE42E6DB3AF81600E4
:100720000028E2D1A069C01BA0612046FFF7F6FEB9
:10073000D8E90010CDE90010002017E03AF81810B1
:100740006A4602A800F0FCFDB0F1FF3F81460BD0E5
:1007500000250DF1080B05E0D4E901211BF8050087
:1007600090476D1C4D45F7D308F10100B04280461B
:10077000E4DB206A384420622046FFF7E5FEBDE84E
:10078000FF9F00002A7C00002DE9F0418046D21D29
:1007900022F007020025D2E90002F52915A614D09F
:1007A000011E72F1000106DA0023D0EB030063EBB7
:1007B000020211A608E0D8F800108B0701D50FA699
:1007C00002E0490701D50EA601251146002408F1D3
:1007D000240704E000F05CF930323A55641C50EA1A
:1007E0000102F7D12B46324621464046BDE8F04192
:1007F00000F093B9000000002D0000002B00000065
:100800002000000030B4002100F1240408E002F0D0
:100810000705D208303542EA4372DB086554491CAB
:1008200052EA0305F3D10468002310A2250707D577
:10083000A40600D421B1C46901230DA2641EC461C1
:1008400030BC00F06AB910B5044621461068FFF7C5
:1008500095FE02462046BDE810400023D2E7D21D97
:1008600022F00701D1E90023CCE7000000000000DE
:1008700030000000F0B40D460188090502D5214C76
:100880007C4402E01F4C7C440E34002100F124061D
:1008900008E002F00F071209E75D42EA03721B0944
:1008A0007754491C52EA0307F3D102780023120758
:1008B00004D5702D06D009B1022311342246F0BCB4
:1008C00000F02BB901231034F8E770B504460D464B
:1008D00021461068FFF752FE024629462046BDE831
:1008E00070400023C6E7D21D22F00703D3E900239E
:1008F000C0E70368126843F0200303600823C36164
:100900000023B7E78C7A00002DE9F05F89460446A2
:100910004FF0000ADFF874B1FB44C0F820A0204675
:10092000E1688847002874D0252806D0D4E9012141
:100930009047206A401C2062F1E700265F4620466F
:10094000E16888472028054607DB312D05D2781954
:1009500010F8200C08B10643F1E7B00701D526F0E6
:100960000406C4F81CA00027C4F818A02A2D09D03A
:10097000284607F059FB38B304EB8708303DC8F828
:10098000185019E059F8041B204604EB87029161C6
:10099000E1688847012F054618D1E069002820DA70
:1009A00026F020061DE0D8F8180000EB800005EBCB
:1009B00040003038C8F818002046E16888470546EE
:1009C00007F032FB0028EED1012F0AD02E2D08D1DE
:1009D0002046E16888477F1C0546022F46F0200626
:1009E000C4DBA069002803DA404246F00106A0619A
:1009F000F00701D026F010066C2D0BD0682D09D021
:100A00004C2D39D06A2D35D0742D35D07A2D33D078
:100A100016E038E0E1682F4620468847B842054690
:100A200009D16C2F26D04FF48060E1680643204640
:100A30008847054604E06C2F1AD04FF480700643B7
:100A40000DB3A5F14100192802D8203546F40066FF
:100A50004A462946204626604E46FFF717FC80B1DD
:100A600001280BD0F61D26F0070000F1080956E713
:100A70004020E4E78020D8E70020D6E706F104090B
:100A80004DE7284652E7206ABDE8F09F1C7A000037
:100A900030B5B0F10A024FEA900E71F100034EEA50
:100AA000817EB0EB0E0061EB91014FEA101E4EEA21
:100AB000017E10EB0E0041EB11114FEA102E4EEAB1
:100AC000016E10EB0E0041EB11214FEA104E4EEA81
:100AD000014E10EB0E0041EB1141401841F10001B5
:100AE0004FEAD00040EA41704FEAD10110EB800597
:100AF0004FEA810444EA907444EB01046D1944EB1D
:100B00000404521BA3414FF0000348BF0A3200D532
:100B100030BD401C41F1000130BD2DE9F0470D46CC
:100B200099469246044600F124080168880604D5D7
:100B3000E06921F01001216000E00120A84201DD00
:100B4000471B00E00027A1697A1902EB0900081A87
:100B5000A0612078C00602D42046FFF7DFFC002603
:100B600008E0D4E901211AF806009047206A401CE9
:100B7000761C20624E45F4DB2078C0060AD520465C
:100B8000FFF7CCFC06E0D4E9012130209047206A31
:100B9000401C2062381EA7F10107F4DC07E0D4E90D
:100BA000012118F805009047206A401C2062281E89
:100BB000A5F10105F3DC2046FFF7C6FC207800060E
:100BC00002D50220BDE8F0870120FBE770472DE940
:100BD000FF4F0C461E464FF0FF378BB0D2E90001A5
:100BE000DDF860800A908A46C1F30A5505B93D4692
:100BF000002108464FF00000BAF1000F00F4400059
:100C000005DA00EB80004FF4400101EA50004FEAA2
:100C10009059B9F1010F00DDB9460A9850EA4A002F
:100C20000ED044F61050A5F2FF3545432F14B8F10D
:100C3000000F1ED07542291E1EDDC9F100021CE006
:100C4000B8F1010F4FF0000001D0302103E0F24372
:100C500005E02154401CB042FBDB3046002200215D
:100C600021540B99C1F80880C1E900200FB0BDE8FC
:100C7000F08FBD1B6D1CDEE74A4600DA694206A80C
:100C800000F0F0FB06AB93E8070003AB83E8070036
:100C900050460A9900F0ADFC8DE80700A0F5005021
:100CA0001F3800900398002D0ADD42F21F014A46CA
:100CB0000844002303A90390684600F016FF09E0EA
:100CC000A0F500504A461F38002303A90390684648
:100CD00000F020FF8DE807000004000C03D04FF067
:100CE000FF30410800E01046B8F1000F03D00022A9
:100CF000009215461EE0751E05D4FFF7C9FE30327E
:100D000062556D1EF9D5B3460122084302D0002278
:100D10007F1C04E02078302801D100227F1E002AA9
:100D2000099784D01DE0112D07DAFFF7B1FE3032AC
:100D300062556D1C50EA0102F5D1084302D00098BB
:100D4000C8B10EE00021681E05E0235C625C6354BC
:100D50002254401E491C8142F7DBAB46A81B401EB3
:100D60000990002004F80B000B98099AC0F808803D
:100D7000C0E9002B7AE711264FF0000857E72DE96C
:100D8000F04F88460446D21D22F0070191B0D1E908
:100D90000001CDE90A0107F01FF902460B98C00FC8
:100DA00001D02D2007E02068810701D52B2002E02B
:100DB000202101EAC000032A099001D0072A05DB9F
:100DC00003464146204600F00DFB0BE120788006EB
:100DD00001D5E06900E00620B8F1650F814606D034
:100DE000B8F1660F18D0B8F1670F70D131E000206C
:100DF000B9F1110F009001DB112301E009F10103AA
:100E00000AAA01A90CA8FFF7E2FEDDE90C70002692
:100E100009F10105834647E001204B4600904FF061
:100E200000470AAA01A90CA8FFF7D1FEDDE90DB021
:100E30000C995D46002610B909F101000D18B9EBB7
:100E4000050003D4C0F1FF3609F10105A5EB090047
:100E50002BE0B9F1010F01DA4FF001090020B9F1DF
:100E6000110F0090484601DD112300E003460AAA55
:100E700001A90CA8FFF7ABFEDDE90C704D4600267A
:100E80008346207800070AD4AB4500DA5D4601A806
:100E9000012D04DD411911F8011C302907D04F45FF
:100EA00002DA17F1040F04DA012082460FE06D1E0A
:100EB000EEE7002F02DCED1B3E4403E0781CA84265
:100EC00000DD7D1CB81B00F1010A4FF000472078BF
:100ED000000703D4AA4501DB4FF0FF3A0021B7F128
:100EE000004F0DF143088DF8431024D002202B232E
:100EF000002F01DA7F422D230A21021EA0F10100FA
:100F000000DC5FB197FBF1FC97FBF1F201FB1C7C6D
:100F100017460CF1300C08F801CDEEE7A8F10100FE
:100F200003702188090501D5452100E06521A0F164
:100F3000010800F8011C09980FA9A1EB0807FF1D83
:100F400000B10120411901EBEA70A1693844081A87
:100F5000401EA0612078C00602D42046FFF7DEFACA
:100F6000099828B1D4E901219047206A401C2062E9
:100F70002078C00622D52046FFF7D0FA1EE0002ECA
:100F800004DBB34502DD01A8805D00E03020D4E938
:100F900001219047206A401C2062761CAAF10100C2
:100FA0005FEA000A0AD100F019FAC0680168405CE3
:100FB000D4E901219047206A401C2062281EA5F137
:100FC0000105DCDC07E0D4E9012118F8010B9047AA
:100FD000206A401C2062381EA7F10107F3DC20467E
:100FE000FFF7B2FA032011B041E600002DE9F04FFF
:100FF00004460D46D21D22F0070089B0D0E90097C3
:101000004846394606F0E8FF0246F80F01D02D2386
:1010100007E02068810701D52B2302E0202101EAA7
:10102000C0038DF820300BB1012000E00020032A1E
:10103000824601D0072A04DB2946204600F0D2F977
:101040003FE12078800601D40D2500E0E569C7F373
:101050000A560D2D49DA00214FEA175B08464FF07A
:101060000000002F00F4400007DA00EB80004FF48E
:10107000400100EBD07001EA60008115012901DD1B
:101080004FF0FF3100224FEA850CBCF1180F06D358
:101090001346ACF118004FF08052C24003E04FF409
:1010A000801323FA0CF30CF10C0CBCF1200F04D3C9
:1010B000ACF1200C09FA0CF001E007FA0CF0002961
:1010C0004FF0004801DD18B90FE00ED140450CD3B8
:1010D00019EB02095F4121B9404502D19F4329EA3A
:1010E0000209BBEB175F00D0761C2088000502D5F3
:1010F0007B48784402E07A487844193808AA3023BB
:1011000002F80A30037C0AF10101002E0AF1020AFA
:1011100053546A4602DC4FF0300101E04FF03101D8
:101120004FF001088DF8001002D0A6F2FF3603E060
:1011300059EA470100D06B4E002D02DC21780907E7
:1011400004D54FF002082E218DF80110C44600216D
:101150000BE0C7F303433F01C35C491C6D1E02F85B
:101160000830052908F1010801DA002DF1DC002121
:101170000CE000EB1973491C1B786D1E082902F85E
:1011800008304FEA091908F1010801DA002DF0DCF6
:1011900021688B0602D516E0A8F10108E04505DDBF
:1011A00002EB080313F8013C302BF5D0B8F1000F27
:1011B00009DD02EB080313F8013C2E2B03D10907CC
:1011C00001D4A8F10108002D05DD3E2102F8081028
:1011D0006D1E08F10108407C002E02F8080008F19D
:1011E000010804DA2D20764202F8080002E02B20E4
:1011F00002F808000A214FF47A70864208F10108CB
:101200000BDB96FBF0F3303302F8083096FBF0F37B
:1012100008F1010800FB136601E0642E0CDB64207A
:1012200096FBF0F3303302F8083096FBF0F308F148
:10123000010800FB136601E00A2E06DB96FBF1F0C5
:10124000303002F8080008F1010896FBF1F001FBCC
:101250001060303002F80800A16908F1010808EBBD
:10126000050202EB0A00081AA0612078C00602D429
:101270002046FFF753F9216A08AE01EB0A0020620D
:1012800004E0D4E9012116F8010B9047BAF1010AF4
:10129000F7D22078C00602D52046FFF73FF96E4608
:1012A00009E016F8010B3E280FD0D4E90121904740
:1012B000206A401C2062B8F10108F2D22046FFF7F4
:1012C00043F909B00320BDE8F08F206A284420626A
:1012D00003E0D4E90121302090476D1EEBD3F8E7FD
:1012E0006672000002FCFFFF10B5436913B1AFF353
:1012F000008001E0FFF74BF9012010BD127800F1EA
:1013000024010A7000224A700122EDE711684FF0B3
:10131000FF32E9E710B5436913B1AFF3008001E094
:10132000FFF7D4F9012010BD128800F12401828456
:101330000022C2840122EDE711684FF0FF32E9E795
:1013400070B516460C46054600F040F8036893F861
:101350000101012806D0FF2C0FD8185D68B10120CB
:101360002C7070BDD3F807013246214603F20713F3
:1013700003442846BDE8704018474FF0FF3070BD69
:10138000754600F0EBF8AE4605006946534620F07E
:101390000700854618B020B5FEF7F2FFBDE82040F3
:1013A0004FF000064FF000074FF000084FF0000B21
:1013B00021F00701AC46ACE8C009ACE8C009ACE8D4
:1013C000C009ACE8C0098D467047000010B500F0B8
:1013D00005F8001D10BD00BFC56D00000048704736
:1013E000242100202DE9F0411F4604460326016810
:1013F000072A01F4006004DB08B116A505E016A574
:1014000003E008B115A500E015A521F0100020604B
:10141000A069C01EA0610FB1401EA0612046FFF769
:101420007DF84FB1D4E9012138469047206A401C2D
:101430002062C01C206206E0206AFAE7D4E901219C
:1014400015F8010B9047761EF8D22046FFF77CF87E
:10145000BDE8F0814E414E006E616E00494E46007F
:10146000696E66002DE9F047814616468AB0354818
:1014700078440DC88DE80D0032487844801C03ACD8
:101480000DC884E80D0041F69B300844372190FBDD
:10149000F1F290FBF1F5A5F1800501FB12041B3C74
:1014A00002D56442012000E00020DFF898A08046C9
:1014B0000027FA44AAF1BE0A0EE0E0070AD032463D
:1014C000684607EB470101230AEB810100F022FB8C
:1014D0008DE8070064107F1C002CEED1194F7F446B
:1014E000AE3F19E0E80715D007EB04100DF1180A1C
:1014F00090E80E008AE80E00C068F04201D1981909
:1015000008903246012306A903A800F003FB03ABB1
:1015100083E807006D10641C002DE3D14FF0010338
:1015200032466946B8F1000F03A802D000F0DDFA98
:1015300001E000F0EFFAC9E90001C9F808200AB09B
:10154000BDE8F087786F000010B50446AFF3008067
:101550002046BDE81040FEF7FEBE00000048704780
:10156000042100204FF0013C50F8042B51F8043BBB
:101570009A4221D1A2EB0C03934313EACC1317D167
:1015800050F8042B51F8043B9A4215D1A2EB0C03FE
:10159000934313EACC130BD150F8042B51F8043BBE
:1015A0009A4209D1A2EB0C03934313EACC13DBD08C
:1015B0004FF00000704700BFD01A01BAB1FA81F1B4
:1015C00001F0180122FA01F0CB40C1F12001DBB299
:1015D000C0B2C01A2CFA01F3D11A914311EAC31117
:1015E000E6D1704701491820ABBEFEE72600020095
:1015F00070475FEA400C08BF91F0000F4FEA8C2360
:101600004FEAC12243EA51514FEA1C5018BF00F57E
:10161000F0404FEA300018BF41F000415FEA6C5CD7
:1016200000F02980BCF1FF3F08BF40F080407047C8
:10163000130C06BF12044FF0100C4FF0000C130EE9
:1016400004BF12020CF1080C130F04BF12010CF1BD
:10165000040C930F04BF92000CF1020CD30F04BFD3
:1016600052000CF1010C11464FF00002A0F11F00D6
:10167000A0EB0C00704711F0004F08BF704731F02D
:1016800000413FF4D5AF0B0C06BF09044FF0100C1E
:101690004FF0000C0B0E04BF09020CF1080C0B0FED
:1016A00004BF09010CF1040C8B0F04BF89000CF17D
:1016B000020CCB0F04BF49000CF1010CCCF120034C
:1016C000A0EB0C0022FA03F302FA0CF241EA030148
:1016D00000F10100704720F07F4C80EA030023F006
:1016E0007F47ACEB070303F57C5300F0004003F1A8
:1016F000FF032DE980494FEA154B09B44FEA144323
:1017000025EA0B4E24EA03480FF2042606EB1327C2
:1017100049083E785FEA320203FB0667C7F5000717
:1017200007FB06F64FEA54374FEAD64606F10206A3
:1017300007FB066CCCF1005C4FEA1C472CEA074C17
:1017400007FB06F40CFB06F504EB15464FEA96166C
:1017500034BF00204FF000404FEAD13706FB07FCB2
:101760004FEA1C4C0CFB0BF7D21B03FB0CF761EB95
:1017700007010CFB0EF7B0EB074072EB17420CFBB6
:1017800008F734BFA2EB0742B2EB074261EB174107
:101790004FEA0C444FEA910706FB07FC4FEA1C4C4A
:1017A0000CFB0BF7B0EBC74072EB573203FB0CF7A7
:1017B00034BFA2EBC742B2EBC74261EB57310CFB1F
:1017C0000EF7B0EBC70072EB57720CFB08F734BF93
:1017D000A2EBC702B2EBC70261EB5771039F4FEA5E
:1017E000816141EA921104EBCC044FEAD1374FEA10
:1017F000826206FB07FC42EA90124FEA80604FEAE1
:101800001C4C0CFB0BF7D21B03FB0CF761EB070125
:101810000CFB0EF7B0EB074072EB17420CFB08F71E
:1018200034BFA2EB0742B2EB074261EB17414FEA2C
:101830008C554FEA910704EB9C2406FB07FC4FEA0A
:101840001C4C0CFB0BF7B0EBC74072EB573203FBA1
:101850000CF734BFA2EBC742B2EBC74261EB573182
:101860000CFB0EF7B0EBC70072EB57720CFB08F7DE
:1018700034BFA2EBC702B2EBC70261EB577115EBA5
:101880004C254FEA816141EA92114FEA82624FEAA8
:10189000D13742EA901206FB07FC44F100044FEAFC
:1018A00080604FEA1C4C0CFB0BF7D21B03FB0CF7C0
:1018B00061EB07010CFB0EF7B0EB074072EB174230
:1018C0000CFB08F734BFA2EB0742B2EB074261EB17
:1018D000174115EB1C154FEA813141EA92414FEA5D
:1018E000823242EA90424FEA80304FEA0C7644F16D
:1018F000000448EA03434EEA0B484FF0000EB2EBF7
:10190000080C71EB030724BF624639464EEB0E0EFE
:101910004FF0000B0018524149414BEB0B0BB2EB5F
:10192000080C71EB03077BF1000B24BF62463946BC
:101930004EEB0E0E4FF0000B0018524149414BEB9D
:101940000B0BB2EB080C71EB03077BF1000B24BF10
:10195000624639464EEB0E0E51EA020718BF46F0BA
:10196000010616EB0E7655F1000254F1000103D585
:10197000BDE88901BDE80088BDE88901BDE80048EF
:10198000B619524141EB0101A3F101037047808078
:101990007F7E7D7C7B7A79787776767574737271C9
:1019A00071706F6E6E6D6C6C6B6A6A696868676681
:1019B00066656464636362616160605F5F5E5E5D13
:1019C0005D5C5C5B5B5A5A59595858575756565587
:1019D00055555454535352525251515050504F4FE9
:1019E0004F4E4E4D4D4D4C4C4C4B4B4B4A4A4A4939
:1019F000494948484847474747464646454545447C
:101A00004444444343434342424242414141002B08
:101A10009C4630D477002BD01CB54FEA370703B46F
:101A20004FF010004FF01001BAF1000F06D0BCF1DA
:101A3000000FDCBF40F0080040F008014FF000004C
:101A40000FBCBDE810400BF1010BBBF1010F08BF4B
:101A50005FEA170722BF12F1010211F101014FF0F5
:101A6000004143F1000300F0004043EA00007047EA
:101A7000F9D35708D0E746EA064613F1400F4FEA7C
:101A800016461FDD13F1200FDFBF16430A46002163
:101A900020335B42BED0C3F1200746EA064602FA75
:101AA00007F74FEA164646EA0706C3F1200722FA6F
:101AB00003F201FA07F721FA03F14FF0000342EABB
:101AC0000702A7E746EA020646EA06464FEA164636
:101AD00046EA0106BCBF46EA0646360C4FF0000354
:101AE0004FF000024FF0000194E72DE9804C9A4638
:101AF000934670B491E8380007C831EA400C48BFFB
:101B000034EA430C03D5FFF7E6FDFFF780FFF0BC96
:101B1000BDE8008C2DE9804C9A46934670B491E85C
:101B2000380007C810F0804F08BF13F0804F03D172
:101B300000F005F8FFF76BFFF0BCBDE8008C20F06B
:101B40007F4780EA030023F07F4C07EB0C03A3F5EB
:101B50007C5300F00040A3F1FE0392F0000F00F070
:101B6000B38095F0000F00F077802DE901494FEA2E
:101B700011404FEA144621EA004800FB06FC24EA23
:101B8000064708FB06F607FB08F800FB07F718EB0B
:101B900006484CEB164C4FEA124B18EB07484FEA3D
:101BA00015464CEB174022EA0B4E0BFB06FC25EAD0
:101BB00006470EFB06F607FB0EFE0BFB07F71EEBB8
:101BC000064E4CEB164C4FF000061EEB074E4CEB4E
:101BD000174B18EB0B0840F1000018EB0E0B58EBFD
:101BE000000840F100008F1A4FF000013CBFC943CC
:101BF000661B14BFB5EB040C00213CBFC943F61BA8
:101C00004FEA17444EEA8E0E27EA04454FEA1C4776
:101C100004FB07622CEA074C05FB07F70CFB05F6F3
:101C200004FB0CFC16EB074642EB174216EB0C4686
:101C300042EB1C421BEB060658EB0202414146EA0E
:101C40009E0601D5BDE80189B619524141EB01015B
:101C5000A3F10103BDE801894FEA14454FEA11479A
:101C600024EA054621EA074C05FB07F406FB07F7C3
:101C70000CFB06F105FB0CFC11EB074144EB174490
:101C80004FEA124711EB0C4144EB1C4422EA074C8B
:101C900005FB07F206FB07F70CFB06F605FB0CFC41
:101CA00016EB074642EB174216EB0C4642EB1C457F
:101CB0006A1854F1000148BF7047B619524141EB10
:101CC0000101A3F10103704795F0000F37D04FEAEF
:101CD00011424FEA144721EA024624EA074C02FB6C
:101CE00007F106FB07F70CFB06F402FB0CFC14EBF8
:101CF000074441EB17414FEA154714EB0C4441EB05
:101D00001C4125EA074C02FB07F506FB07F70CFB15
:101D100006F602FB0CFC16EB074645EB174516EBE7
:101D20000C4645EB1C42121951F1000148BF7047A7
:101D3000B619524141EB0101A3F1010370474FEA8B
:101D400014454FEA114724EA054621EA074C05FBF2
:101D500007F106FB07F70CFB06F24FF0000605FB48
:101D60000CFC12EB074241EB174112EB0C4251EB1A
:101D70001C4148BF7047921841EB0101A3F10103D8
:101D8000704700007CB504460025C4E900120381B9
:101D90009FED110A458180ED030A80ED040A06F0EB
:101DA0004AF901AA44F20101204606F0CAF98DF869
:101DB000005005E000BF9DF80000401C8DF80000B9
:101DC0009DF800004628F5D301AA4FF44041204673
:101DD00006F0B7F97CBD0000000000007CB50025CE
:101DE0000446ADF800506A464FF6FF7106F0A9F9B7
:101DF0008DF8045005E000BF9DF80400401C8DF8EC
:101E000004009DF804004628F5D36A464FF440418B
:101E1000204606F096F9BDF80000410401D50120E6
:101E20007CBDC0F30D0100EE101ADFED0A0A6181DE
:101E3000B8EE400A002020EE200ADFED070A84ED0C
:101E4000030A00EE101AB8EE400A20EE200A84EDD4
:101E5000040A7CBD0000B43CD00FC939FEE7002065
:101E6000704700207047000010B500220449054863
:101E700004F0CDFE0449034804F0C0FE002010BD6C
:101E800004180020340B00200410002010B5014677
:101E9000034804F0B3FE024804F078FE002010BDB1
:101EA000340B002000207047094A10B5D2F8BC223C
:101EB000D2F814220AB1012010BD0A460146044896
:101EC00004F0A5FEBDE81040014804F00ABF000080
:101ED000340B0020704772B6FEE700002DE9F04F8A
:101EE000044690F858009BB00F464FF0000B0128B5
:101EF00012D0012084F85800002617961896206802
:101F00004FF0A048DFF81C91DFF81CA1474D404579
:101F100006D12846009508E002201BB0BDE8F08FEE
:101F200048450AD15046CDF800A002F0F9FF0090D4
:101F3000206802F0F5FF40B109E0E06D40F02000BC
:101F4000E06584F858600120E7E7009850B1E06D43
:101F500040F02000E0654FF0010B00BF84F85860AE
:101F60005846DAE720684146884201D0A84201D1AC
:101F70002F4800E02F48D7F800C02F4B40F61F72C3
:101F8000BCF1000F2DD0D0F808C094F838802CF4A4
:101F9000604C4CEA483CD7F804804CEA080CC0F886
:101FA00008C0D4F800C08C4501D0AC4504D1896884
:101FB000AB6801F0010109E0D9F80810DAF808501F
:101FC00001F0010105F001059B68294303F00103BD
:101FD0001943C3D1BB6839681943836893431943D4
:101FE0001DE0876827F46047876027688F4201D02B
:101FF000AF4204D18968AB6801F0010109E0D9F86A
:102000000810DAF8085001F0010105F001059B689D
:10201000294303F001031943A0D1816891438160F2
:102020009CE7000000040050000500500001005033
:102030000003005000070050000600502DE9F84F43
:1020400000270446009790F85800DFF818840D46E2
:10205000B946012811D0012684F85860206802F0A2
:102060005BFF60B1E06D40F02000E0655FF00107CC
:1020700084F858903846BDE8F88F0220FBE7D5E990
:1020800000210C23206803EA91131844036B01F02C
:102090001F014FF01F0C0CFA01FCC2F3846223EA0B
:1020A0000C038A4013430363206802F035FF824625
:1020B000206802F02DFF5AEA00003CD1AA68296886
:1020C0002068B2F1004F37D002F02EFF206841693E
:1020D00021F00041416120686969C268C2F3C10210
:1020E000520091402A69042A31D000EB82002B680B
:1020F000026EDFF874C303F0F84302EA0C020B43EC
:102100001A4342F00041016620682A69A96900EB80
:102110008200026E22F080720A430266297F2068E4
:102120002A69012910D0002100EB8200026E22F002
:1021300000720A4302667DE0002202F0F5FE20688C
:10214000416941F00041C5E74FF00071ECE7002123
:1021500002F0D8FE400320684FF0000172D002F078
:10216000D1FE90FAA0F0B0FA80F1286842036ED058
:1021700090FAA0F0B0FA80F0814204D1002211461A
:10218000206802F0E0FE0121206802F0BBFE40035F
:1021900020684FF001015DD002F0B4FE90FAA0F08B
:1021A000B0FA80F12868420359D090FAA0F0B0FA52
:1021B00080F0814204D100220121206802F0C3FE98
:1021C0000221206802F09EFE400320684FF00201C9
:1021D00048D002F097FE90FAA0F0B0FA80F128689B
:1021E000420344D090FAA0F0B0FA80F0814204D1CA
:1021F00000220221206802F0A6FE0321206802F0DE
:1022000081FE400320684FF0030133D002F07AFED4
:1022100090FAA0F0B0FA80F1286842032FD090FA2B
:10222000A0F0B0FA80F0814204D10022032120689E
:1022300002F089FE2068816811F0010F22D0ACE025
:1022400000E004E002F05EFEC0F384618DE7C0F3BD
:10225000846091E702F056FEC0F38461A2E7C0F308
:102260008460A6E702F04EFEC0F38461B7E7C0F3D6
:102270008460BBE702F046FEC0F38461CCE7C0F3A4
:102280008460D0E72A7B296850F8B03FC1F3120C74
:1022900023EA0C0302F0180C744A22FA0CF20A40EA
:1022A00013430360E968414577D1286841031CD096
:1022B00090FAA0F1B1FA81F1491C01F01F0109293E
:1022C0004FEA403132D8002912D000BF90FAA0F175
:1022D000B1FA81F101F1010101F01F0106FA01F6E5
:1022E00009D100BFC0F3846109E0C0F38461E3E772
:1022F000C0F38461EEE790FAA0F1B1FA81F101F147
:10230000010101F01F0146EA816102D1C0F384603E
:1023100003E090FAA0F0B0FA80F000F1010000F0C4
:102320001F0000EB400041EA005132E000290ED0CE
:1023300090FAA0F1B1FA81F101F1010101F01F0160
:1023400006FA01F606D100BFC0F3846106E0C0F3CF
:102350008461F1E790FAA0F1B1FA81F101F1010194
:1023600001F01F0146EA816102D1C0F3846003E0FD
:1023700090FAA0F0B0FA80F000F1010000F01F0028
:102380003B4A00EB400002EB005041EA000141F003
:102390000071AA68206802F0C7FD36482B68034226
:1023A0003FF466AE21684FF0A04C334D3348344EB5
:1023B000614501D0A94201D1024600E0324692684F
:1023C000DFF8C08002F0E072434503D0DFF8B88048
:1023D000434521D15FEA02281ED4614506D02B4B2C
:1023E00099427FF445AEA94200D0304642F4000144
:1023F000826822F0E0720A4382602548254900681D
:10240000B0FBF1F0401C00EB4000800000E0401EFB
:1024100000900028FBD12BE6DFF87C8043450DD1EE
:102420005FEAC2180AD4A942F5D01C4B9942F2D0F7
:10243000614500D0304642F080710CE0DFF86080EA
:102440004345E8D15302E6D4A942E4D0614500D027
:10245000304642F48001826822F0E0720A438260D2
:1024600006E6000000007F4000F0FF03FFFF0700CA
:10247000000020FE00000880000100500003005012
:1024800000070050000021C31000C090000600505B
:1024900010000020400D0300000052C7000500504E
:1024A000000084CBF8B54FF0000504002E460095DF
:1024B00002D0E06D10B107E00120F8BD204600F029
:1024C00009F9266684F8586020688168C1F3407174
:1024D00019B18168734A1140816020688168C1F335
:1024E000007189B98168704A114041F08051816062
:1024F0006E486F490068B0FBF1F04000801C00E0BE
:10250000401E00900028FBD120688168C1F3007153
:1025100041B9E16D41F01001E165216E41F0010129
:102520002166012502F0F8FCE16DC90600D430B146
:10253000E06D40F01000E06501252846F8BDE06D33
:1025400020F4807040F00200E0652068816811F09E
:10255000010F27D14FF0A043564A984201D0904234
:1025600004D19968966801F001010AE0524989682E
:10257000524E01F00101B66806F001063143504E9B
:10258000B66806F0010631430CD1984201D0904262
:1025900001D14C4800E04C486168826822F47C120A
:1025A0000A438260E168E06B627F0843A16841EA08
:1025B0004231084394F8241040EA0140012904D133
:1025C000218D424A02EB41410843E16A29B101F4FD
:1025D0007871226B014342EA01002268D1683C4BCA
:1025E00019400143D16020680169626B21F04061AC
:1025F00011430161206802F08BFC70BB207F94F8CE
:1026000038102268800340EA4100D16844F2020396
:1026100099430143D16020690028206801690AD0EC
:1026200041F480310161206850F8C01F22696FF3C6
:102630000D01114307E021F480310161206850F859
:10264000C01F6FF30D01016094F8400001280CD009
:102650002068016921F00101016160690128206899
:10266000016B21F00F0111D013E0D4E911010843EF
:10267000D4E913121143084321680A6940F2FC733C
:102680009A43104340F001000861E6E7226A521EB7
:1026900011430163E06D20F0020040F00100E065AD
:1026A0004BE70000C0FFFF5FC0FFFF7F100000206E
:1026B000400D0300000100500004005000050050D0
:1026C0000006005000030050000700500000FEFF0D
:1026D0000740F0FF2DE9F0419CB00446142115A8F5
:1026E000FDF7F2FE54216846FDF7EEFE4FF400427E
:1026F000206800259103444F0326444CB0F1A04FBD
:1027000012D0434BDFF80C81984259D168460092B1
:10271000119100F0BBFF08B1FFF7DDFB3868401CEA
:102720003860012825D02CE068460092119100F015
:10273000ADFF08B1FFF7CFFB3868401C38600128B7
:1027400007D1E06C40F40050E064E06C00F400500D
:102750001A90E06C40F00100E064E06C179500F026
:1027600001001A900620CDE9150615A94FF09040FA
:1027700021E0E06C40F40050E064E06C00F40050B4
:102780001A90E06C40F00400E064E06C00F004009B
:102790001A90E06C40F00200E064E06C179500F0E5
:1027A00002001A902020CDE9150615A91A4800F05C
:1027B00049F8042022E000F045F81CB0BDE8F081A3
:1027C00016498842F9D180010090C00312906846F2
:1027D00000F05CFF08B1FFF77EFBE06C40F4804046
:1027E000E064E06C00F480401A90E06C40F002007D
:1027F000E064E06C00F002001A9002201795CDE929
:10280000150615A94046D6E700000020001002403A
:102810000001005000040048000800480004005077
:1028200070B5044600F02EF90546601C02D004483D
:102830004068044400F026F9401BA042FAD370BD62
:10284000040000202DE9F04FDFF80C920023012650
:102850000325A9F1040B85B00F2709F1040AABF198
:10286000040EF1E006FA03FC12EA0C027ED00C79A9
:1028700004F00304012C01D0022C20D184680094C0
:102880005C0005FA04F80494009C24EA080400940F
:10289000D1F80C80049C08FA04F8009C48EA04086B
:1028A000C0F80880446824EA0C0491F804C0CCF312
:1028B000001C0CFA03FC4CEA040CC0F804C00C79B0
:1028C000E443A40702D18C68012C0ED0C4684FEAFF
:1028D000430805FA08FC24EA0C04D1F808C00CFAF5
:1028E00008FC4CEA040CC0F80CC00C7904F003049A
:1028F000022C16D1DC0800EB840CCDF808C0DCF803
:1029000020C05C074FEAD46807FA08F42CEA040CEC
:102910000C6904FA08F444EA0C04DDF808C0CCF8A9
:10292000204004684FEA430805FA08FC24EA0C0436
:1029300091F804C00CF0030C0CFA08FC4CEA040CEF
:10294000C0F800C04C6814F4403F7CD0434CD4F82D
:1029500060C04CF0010CC4F860C0246E23F0030C7E
:1029600004F0010400943E4C644400E06BE00294E7
:10297000A4684FEA837C4FEA1C7807FA08FC24EA33
:102980000C04B0F1904F06D0DFF8D8C0604505D1F7
:102990004FF0010C20E04FF0000C1DE0DFF8C8C044
:1029A000604502D14FF0020C16E0DFF8C0C0604570
:1029B00002D14FF0030C0FE0DFF8B4C0604502D144
:1029C0004FF0040C08E0DFF8ACC0604502D14FF0D6
:1029D000050C01E04FF0060C0CFA08FC4CEA040C64
:1029E000029CC4F808C0D9F80040CC46D1F8048055
:1029F00094435FEAC82800D51443CCF80040DAF8C5
:102A00000040D446D1F8048094435FEA882800D57A
:102A10001443CCF80040DBF80040DC46D1F80480D9
:102A200094435FEA883800D51443CCF80040DEF8C0
:102A30000040F446D1F8048094435FEAC83800D5DA
:102A40001443CCF800405B1C0C682246DC407FF449
:102A500009AF05B0BDE8F08F080401400010024046
:102A6000000001400004004800080048000C004835
:102A700000100048001400480AB18161704781626B
:102A80007047000001488068704700000400002083
:102A90000248816842681144816070470400002048
:102AA00010B50024032000F073F80F2000F008F8A0
:102AB00008B1012401E000F025F8204610BD000017
:102AC00070B50E4E05460024706898B14FF47A71C7
:102AD000B1FBF0F00A490968B1FBF0F001F081FCAC
:102AE00040B9102D06D200222946501E00F030F8C1
:102AF000356000E00124204670BD00000400002085
:102B0000100000200A4882B0016E41F00101016608
:102B1000016E01F001010091816D41F080518165EC
:102B2000806D00F08050009002B000F0A7BD000062
:102B300000100240002809DB00F01F020121914033
:102B40004009800000F1E020C0F80011704700004B
:102B5000F0B40E4B1B680C46C3F30223C3F1070508
:102B6000042D00D90425191D072901D2002300E0F6
:102B7000DB1E012606FA05F1491E214099409E40C0
:102B8000761E16403143F0BC05F03EBA0CED00E075
:102B9000064900F0070208684FF6FF03184040EAB4
:102BA0000220034A10430860704700000CED00E06B
:102BB0000000FA0501220168C0F8D022002280F846
:102BC000C82231F8540F40F001000880088840F016
:102BD000020008801046704770B50F4D044669B179
:102BE00001290AD1D4F8D80204F047FB607A002802
:102BF00003D0286840F00600286070BD607A28B1D4
:102C000003F07EF8286820F006002860D4F8D80287
:102C1000BDE8704004F0C9BA10ED00E010B50C0634
:102C200007D501F0070101EB810100EBC100103075
:102C300005E001EB810100EBC10000F5A87099B23D
:102C400032B1012202730181190C4181002010BDB3
:102C500000220273C180F9E701EB810200EBC2029E
:102C6000D0F8D802526A04F07EB901EB810200EB81
:102C7000C202D0F8D802D2F8642104F0C8B970B505
:102C800004460B0601F0070000EB800104EBC101D4
:102C90004FF001024FF0000502D54A74103103E0F5
:102CA00081F8515101F5A871087094F8900201283B
:102CB00008D084F89022206804F091FE84F89052A5
:102CC000002070BD022070BD70B5044601F00F00F9
:102CD0002279904201D9012070BD0B0601F0070056
:102CE00000EB800104EBC1014FF001024FF0000541
:102CF00002D54A74103103E081F8515101F5A871F1
:102D00008D70087094F89002012808D084F8902201
:102D1000206804F017FF84F89052002070BD022054
:102D200070BD2DE9F04704685FEA42480B788D6971
:102D3000B4F850804FF0000C4BF68F7748F28006C5
:102D400048F68F7948F2C00A444428D540F2024838
:102D500008EBC30834F80840C4F30904A54203D3C0
:102D60002D1B8D6102D00BE0C1F818C0D0F800C057
:102D70003CF823503D4085F4005535432CF8235052
:102D8000520609D50B78056835F8232002EA0902B6
:102D900042EA0A0225F8232074B30A8927E040F2A8
:102DA000064808EBC30834F80840C4F30904A542F8
:102DB00003D32D1B8D6102D00BE0C1F818C0D0F8F1
:102DC00000C03CF823503D4085F4005535432CF8B5
:102DD0002350520609D40D78036833F8252002EAFF
:102DE000090242EA0A0223F825202CB14A894969DE
:102DF0000068234605F0C1F82046BDE8F0872DE9BC
:102E0000F05F054600680C465FEA42681646D1F856
:102E100018C02278B0F8508048F6BF7A48F2800B8C
:102E200048F68F774CF280094FF6FF734FF4004E4F
:102E30004FF0000140447DD540F2024808EBC20843
:102E400030F80800C0F30900844514D9BCEB000C2D
:102E5000C4F818C010D0760408D5D5F800C03CF8E6
:102E600022603E4046EA09062CF8226094F82420AD
:102E7000012A60D076E1A161607810B1012813D0F9
:102E80001AE02868B0F85030184400EBC200B0F8DF
:102E90000224C2F30902A0F80224B0F8022442F48A
:102EA0000042A0F8022407E02868B0F85030184427
:102EB00000EBC200A0F802146278286812B1012A5F
:102EC00011D018E0B0F850100844217800EBC10090
:102ED000B0F80614C1F30901A0F80614B0F80614FE
:102EE00041F4004105E0B0F850201044227800EB96
:102EF000C200A0F80614E07802280BD122782968D5
:102F000031F8220000EA0A0080F0200040EA0B00BD
:102F100021F8220021782846FFF79EFE700408D58C
:102F200021782A6832F82100384040EA090022F866
:102F30002100C3E04DE0626902446261E26902443B
:102F4000E2612669226AB24202D33046111A03E0D6
:102F500084F824100AB110462162617811B1012968
:102F60002BD033E02968B1F850201144227801EBCE
:102F7000C201B1F80224C2F30902A1F8022401F24D
:102F8000024158B13E280ED84208C60700D0521C54
:102F90000E8803EA822216430E8017E00A8842F464
:102FA00000420A8012E04209C30600D1521E0B887B
:102FB0004EEA822213430B8008E02968B1F85020C2
:102FC0001144227801EBC201A1F8020483B22289E4
:102FD000C4E040F2064808EBC20830F80800C0F32D
:102FE0000900844514D3BCEB000CC4F818C010D001
:102FF000760408D4D5F800C03CF822603E4046EA8A
:1030000009062CF8226094F82420012A59D0A9E05E
:10301000A161607810B1012813D01AE02868B0F8D7
:103020005030184400EBC200B0F80224C2F3090289
:10303000A0F80224B0F8022442F40042A0F80224CE
:1030400007E02868B0F85030184400EBC200A0F840
:1030500002146278286812B1012A11D018E0B0F881
:1030600050100844217800EBC100B0F80614C1F3F9
:103070000901A0F80614B0F8061441F4004105E077
:10308000B0F850201044227800EBC200A0F80614DB
:10309000E07802280BD121782A6832F8210000EA72
:1030A0000A0080F0200040EA0B0022F8210021787D
:1030B0002846FFF7D1FD70047FF532AF0020BDE850
:1030C000F09F626902446261E2690244E26126693A
:1030D000226AB24203D33046111A216204E00AB1D7
:1030E0001046216284F824106278296812B1012AFE
:1030F0002AD031E0B1F850201144227801EBC2010E
:10310000B1F80624C2F30902A1F8062401F206412F
:1031100058B13E280ED84208C60700D0521C0E886F
:1031200003EA822216430E8016E00A8842F4004227
:103130000A8011E04209C30600D1521E0B884EEAF4
:10314000822213430B8007E0B1F85020114422780B
:1031500001EBC201A1F80604628983B261692868A3
:1031600004F026FF2278296831F8220000EA0A00DC
:1031700080F0300040EA0B0021F822009EE701F0C9
:10318000070101EB810100EBC100D0F86C01704731
:103190002DE9F04104460F0601F0070000EB800125
:1031A00004EBC1014FF001064FF0000502D54E744B
:1031B000103103E081F8515101F5A871022B08701C
:1031C000C2F30A000861CB7000D10D7194F890022F
:1031D000012809D084F89062206804F04BFA284650
:1031E00084F89052BDE8F0810220FBE710B501F0B1
:1031F000070404EB840100EBC101C1E9592300225B
:10320000C1F86C2181F8512181F85041006801F525
:10321000A87104F0E9FC002010BD70B5044601F06F
:1032200007002279904201D9012070BD0B064FF0B2
:1032300000054FF0010206D500EB800104EBC1014F
:103240004A74103107E001EB810104EBC10181F800
:10325000515101F5A8718A70087094F89002012804
:1032600008D084F89022206804F0A4FC84F89052DE
:10327000002070BD022070BD10B501F0070404EB02
:10328000840100EBC101C1E90923012281F8342046
:103290000B630023CB624A7401F8104F006804F0FE
:1032A000A3FC002010BD10B50446006804F062FEC7
:1032B000010404D52046BDE8104002F05BBA410588
:1032C0000ED5206830F8441F21F48061018020462B
:1032D00000F008F92046BDE81040002100F02EB9AA
:1032E000410405D5206830F8441F21F480417DE079
:1032F000810405D5206830F8441F21F4005175E0A1
:10330000C1041FD5206830F8401F21F0040101805E
:10331000206830F8401F21F00801018094F8C802AD
:10332000012806D1002084F8C80201462046FFF794
:1033300053FC204600F0EAF8206830F8441F21F4DE
:10334000805153E0010512D5206830F8401F41F04C
:1033500008010180206830F8441F21F400610180D9
:10336000206830F8401F41F0040101800AE00106A6
:1033700029D5206830F8441F21F08001018094F89D
:10338000C80218B1204600F009F910BD206830F8D5
:10339000401F41F004010180206830F8401F41F0D7
:1033A00008010180012084F8C8022068B0F85400A8
:1033B0003C2101EA9000C4F8CC022046BDE8104050
:1033C0000121FFF709BC810509D5206830F8441FA9
:1033D00021F400710180204600F0ACF810BDC0055A
:1033E000FCD5206830F8441F21F48071018010BDA5
:1033F00070B5040004D094F89102002510B106E0E5
:10340000012070BD84F89052204600F03FF8032060
:1034100084F89102206804F08DFB002001260BE067
:1034200000EB800104EBC1014E740874CD740D6291
:103430004D62401CC0B28D6221798142F0D80020DB
:1034400012E000BF00EB800104EBC10181F8515193
:1034500081F8500181F85351C1F86051C1F86451AD
:10346000401CC0B2C1F8685121798142EAD894E881
:10347000070004F056FB257384F89162A07A0128B6
:1034800002D12046FFF796FB002070BD10B596B024
:10349000044654216846FDF717F810492068884211
:1034A0001AD14014009000200F90684600F0EEF80A
:1034B00008B1FEF710FD0A48816D41F400018165F5
:1034C000806D002200F40000159011461420FFF7D3
:1034D0003FFB1420FFF72EFB16B010BD005C004030
:1034E0000010024070B5044640790125022801D041
:1034F000FEF7F1FC2946D4F8D80203F070FED4F8A8
:10350000D802BDE8704003F023BE000010B50446A9
:10351000407A30B10648016821F00601016002F0EE
:10352000EFFBD4F8D802BDE8104003F03EBE000027
:1035300010ED00E0D0F8D80203F041BE10B504460B
:1035400090F8900201280AD0012084F8900221739B
:10355000206804F026FD002084F8900210BD0220AF
:1035600010BDD0F8D82200F52671104603F043BEF6
:1035700010B5044690F8900201280CD0012084F880
:103580009002206804F0E7FC206804F0C3FA0020F1
:1035900084F8900210BD022010BD000010B5044652
:1035A000D0F8D80203F069FE607A002804D00348FE
:1035B000016841F00601016010BD000010ED00E05F
:1035C0002B492C4B0A6832214A432B4940B1B0F5B4
:1035D000007F086829D020F4C06040F480602CE0AF
:1035E0000868C0F34120022804D051F8800F20F46D
:1035F000807022E0D1F8800020F48070C1F8800053
:10360000086820F4C06040F400700860B2FBF3F07A
:10361000401C00E0401E4A69520501D50028F9D13E
:10362000486940050AD503207047C0F341200228AD
:1036300006D051F8800F40F4807008600020704779
:10364000D1F8800040F48070C1F88000086820F450
:10365000C06040F400700860B2FBF3F0401C00E072
:10366000401E4A695205DBD50028F9D1D8E7000091
:103670001000002040420F000070004002488168A6
:1036800041F4804181607047007000402DE9F843AB
:10369000044600680026BB4D00035ED5A86D0027D8
:1036A000C00008D4A86D40F08050A865A86D01271F
:1036B00000F080500090DFF8D092D9F8001041F46B
:1036C0008071C9F80010FFF7DDF9804606E000BF01
:1036D000FFF7D8F9A0EB080002282BD8D9F8000092
:1036E000C005F5D5D5F8900010F4407014D0216DC8
:1036F000814211D0D5F89000D5F8901020F4407098
:1037000041F48031C5F89010D5F8901021F4803143
:10371000C5F89010C5F89000C00711D0FFF7B2F9B6
:10372000804641F2883907E0FFF7ACF9A0EB0801C9
:10373000494501D903260BE0D5F890008007F3D561
:10374000D5F89000216D20F440700843C5F8900032
:103750001FB1A86D20F08050A8652078C00707D061
:10376000D5F88800616820F003000843C5F8880098
:103770002078800707D5D5F88800A16820F00C00D4
:103780000843C5F888002078400707D5D5F8880099
:10379000E16820F030000843C5F888002078000771
:1037A00007D5D5F88800216920F0C0000843C5F886
:1037B00088002078C00607D5D5F88800616920F414
:1037C00040700843C5F888002078800607D5D5F8F2
:1037D0008800A16920F440600843C5F8880020787B
:1037E000400607D5D5F88800E16920F44050084329
:1037F000C5F888002078000607D5D5F88800216A2A
:1038000020F440400843C5F888002088C00507D54B
:10381000D5F88800616A20F440300843C5F8880074
:103820002068800307D5D5F89C00A16A20F003002A
:103830000843C5F89C002088800507D5D5F8880086
:10384000E16A20F440200843C5F88800208840053C
:103850000FD5D5F88800216B20F440100843C5F837
:103860008800206BB0F5801F03D1E86840F4801019
:10387000E860208800050FD5D5F88800616B20F43A
:1038800040000843C5F88800606BB0F5800F03D195
:10389000E86840F48010E8602088C0040FD5D5F8AF
:1038A0008800A16B20F040700843C5F88800A06B29
:1038B000B0F1807F03D1E86840F48010E860208890
:1038C0004FF0006180040ED5D5F88800E26B20F03F
:1038D00040601043C5F88800E06B884203D1E86877
:1038E00040F48010E860208840040ED5D5F88800A8
:1038F000226C20F040601043C5F88800206C88429C
:1039000003D1E86840F48010E860208800040FD5F7
:10391000D5F88800616C20F040500843C5F8880055
:10392000606CB0F1805F03D1E86840F48030E860FB
:103930002068C0030FD5D5F88800A16C20F0404066
:103940000843C5F88800A06CB0F1804F03D1E86847
:1039500040F48030E860206840030FD5D5F89C0023
:10396000E16C20F440100843C5F89C00E06CB0F511
:10397000001F03D1E86840F48010E8603046BDE8DD
:10398000F883000000100240007000402DE9F0476D
:103990000E4605004FF0000725D0DFF8AC81D8F8BF
:1039A000000000F00F00B0420CD2D8F8001021F057
:1039B0000F013143C8F80010D8F8000000F00F00E4
:1039C000B04210D12968614CC80741F2883A5AD0F8
:1039D0006868DFF87C91032808D0022820682DD081
:1039E000400500282CDB0120BDE8F087206880011D
:1039F000F9D5E06800F00302E068C0F30310401C52
:103A0000032A19D0534A00BFB2FBF0F0E268C2F3B8
:103A100006225043E268C2F34162521C5200B0FBDE
:103A2000F2F0484517D9A06810F0F00F0CD08807C5
:103A300011D5A86840B10EE0474AE5E78003D0E71A
:103A400000F0B6F8484506D9A06820F0F00040F034
:103A50008000A0608027A068696820F00300084308
:103A6000A060FFF70FF8814606E000BFFFF70AF8F5
:103A7000A0EB090151453AD8A068696800F00C0034
:103A8000B0EB810FF2D12868810714D5400703D528
:103A9000A06840F4E060A0602878000705D5A06821
:103AA00020F4605040F4E060A060A068A96820F0B5
:103AB000F000084304E0802F03D1A06820F0F0005C
:103AC000A060D8F80010404601F00F01B14216D9AD
:103AD000016821F00F0131430160FEF7D3FF074673
:103AE00007E000BFFEF7CEFFC11B514501D90320FF
:103AF0007AE7D8F8000000F00F00B042F2D1287841
:103B0000400705D5A068E96820F4E0600843A0609C
:103B10002878000706D5A068296920F4605040EA9B
:103B2000C100A06000F044F8A1680C4AC1F3031181
:103B3000515C01F01F01C84009490860094800684C
:103B4000BDE8F047FEF7BCBF002002400010024075
:103B500000B4C4040024F40000127A00F0820008CB
:103B6000100000200400002005480649006889680C
:103B7000054AC1F30221515C01F01F01C8407047A2
:103B8000100000200010024000830008054806498C
:103B900000688968054AC1F3C221515C01F01F0128
:103BA000C840704710000020001002400083000849
:103BB000184910B58868C0F381021748012A0BD054
:103BC0008A684310C2F38102022A06D08A68C2F3CF
:103BD0008102032A03D0002010BD184610BDCA6818
:103BE00002F00304CA68C2F30312521C032C02D071
:103BF000B0FBF2F001E0B3FBF2F0CA68C968C2F3AF
:103C000006225043C1F34161491C4900B0FBF1F069
:103C100010BD0000001002400024F4002DE9F8431C
:103C200004007AD02078F84DC00747D0A868E9682A
:103C300000F00C0001F003010C2802D0082817D076
:103C400001E0032914D06068B0F5803F17D0B0F5CB
:103C5000A02F286817D020F480302860286820F42E
:103C6000802028606068E0B1FEF70CFF064614E093
:103C70002868800322D560680028D2D01EE028681A
:103C800040F48030EDE740F480202860F7E700BF83
:103C9000FEF7F8FE801B642870D828688003F7D5EB
:103CA0000CE0FEF7EFFE064605E000BFFEF7EAFE79
:103CB000801B6428F0D828688003F7D42078800718
:103CC0004CD5A868E96800F00C0001F003010C284D
:103CD00002D004280DD001E002290AD0E0680028B3
:103CE00028682BD040F480702860FEF7CBFE064693
:103CF00019E02868400502D5E068002891D068687E
:103D0000217C20F0FE4040EA01606860BF48006806
:103D1000FEF7D6FE002800D120E072E1FEF7B2FEE9
:103D2000801B0228B8D828684005F7D56868217C30
:103D300020F0FE4040EA016068600FE020F48070EF
:103D40002860FEF79FFE064605E000BFFEF79AFEDC
:103D5000801B0228A0D828684005F7D420780007E7
:103D600029D560690028D5F8940013D040F00100EF
:103D7000C5F89400FEF786FE064606E090E000BF18
:103D8000FEF780FE801B022886D8D5F894008007B5
:103D9000F6D510E020F00100C5F89400FEF772FEA1
:103DA000064604E0FEF76EFE801B022878D8D5F8A0
:103DB00094008007F6D42078400761D5A86D0026CE
:103DC000C00008D4A86D40F08050A865A86D0126F9
:103DD00000F0805000908E480168C90511D4016838
:103DE000804641F480710160FEF74CFE074604E016
:103DF000FEF748FEC01B022852D8D8F80000C005C4
:103E0000F6D5A068012815D00528D5F8900016D061
:103E100020F00100C5F89000D5F8900020F00400D3
:103E2000C5F89000A06841F28838B8B1FEF72AFEC4
:103E300007460EE0D5F8900040F00100F0E740F0B2
:103E40000400C5F89000F5E7FEF71CFEC11B4145D4
:103E500026D8D5F890008007F6D50CE0FEF712FEC4
:103E6000074604E0FEF70EFEC11B414518D8D5F801
:103E700090008007F6D41EB1A86D20F08050A86590
:103E80002078800629D5A0690028D5F8980013D09D
:103E900040F00100C5F89800FEF7F4FD064606E084
:103EA00075E000BFFEF7EEFD801B02286FD8D5F845
:103EB00098008007F6D510E020F00100C5F89800C2
:103EC000FEF7E0FD064604E0FEF7DCFD801B02285D
:103ED0005DD8D5F898008007F6D4E069F0B3A968FA
:103EE000C1F3810103295DD00228286820F0807089
:103EF000286003D0FEF7C6FD04464BE0FEF7C2FD86
:103F0000064604E0FEF7BEFD801B02283FD8286865
:103F10008001F7D4F4E908016FF00F0202EB011100
:103F20000843218A5204490802EB4151A26841EA40
:103F300002210843217D4FF07E42490802EB416196
:103F40000843217B40EAC160E968324A11400843D6
:103F5000E860286840F08070286000E05EE0E86873
:103F600040F08070E860FEF78DFD044605E000BF7C
:103F7000FEF788FD001B022809D828688001F7D5C4
:103F80004CE000BFFEF77EFD001B022802D9032093
:103F9000BDE8F88328688001F4D4E8681E49084029
:103FA000E8603BE00128F3D0E868226A00F00301F2
:103FB000914226D1616A00F0F00209011039914264
:103FC0001FD1A26A00F4FE41B1EB022F19D194F87F
:103FD0002C2000F07841B1EBC26F12D1218E00F499
:103FE000C00249084905A1F50011914209D194F890
:103FF000341000F0C06049084906A1F10071814207
:104000000CD00120C4E70000001002400400002092
:10401000007000400C809F01FCFFEEFE0020B7E71F
:1040200070B5040009D0606A002540B12561656162
:10403000A56294F85D0040B10CE0012070BD60689D
:10404000B0F5827FF4D0E561F2E784F85C50204659
:1040500000F05CF8022084F85D002068016821F01F
:1040600040010160E1684FF4E062914201D9002013
:1040700001E04FF48050B1F5706F02D0914200D052
:10408000A562A188228901F4827102F404421143DD
:10409000227C02F002021143227D02F00102114350
:1040A000228B02F400721143227F02F03802114386
:1040B00094F8202002F080021143228D02F4005275
:1040C000114322681160A169042202EA114194F8A7
:1040D000242000F4805002F01002114394F83420A0
:1040E00002F008021143A28902F4706211430143F5
:1040F000206841602068C16921F40061C1612566C2
:10410000012084F85D00002070BD000010B586B06D
:10411000044614216846FCF7D7F912492068884202
:104120001ED11148816D41F400418165816D01F41A
:1041300000410591C16C41F00401C164C06C694645
:1041400000F0040005904FF4E05000900220019030
:10415000002002900390062004900448FEF772FBB2
:1041600006B010BD003C00400010024000080048AE
:104170002DE9FF5F1D46934604464FF001090E9E50
:10418000FEF780FC074694F85D006168012806D0C0
:10419000B1F5827F39D1A168B1BB042835D101982E
:1041A00000287CD0BBF1000FFBD0002DF9D094F893
:1041B0005C00012829D04FF0010A84F85CA094F833
:1041C0005D00042802D0052084F85D004FF000084F
:1041D000C4F86080C4F840B0A4F84650A4F8445035
:1041E0000199A163E587A587C4F84C80C4F8508085
:1041F000E0684FF4E061884201D8012D09D92068B8
:10420000426822F4805208E0FFE7022004B0BDE8D3
:10421000F09F2068426842F4805242602068026841
:10422000520603D4026842F040020260E06888420D
:10423000606846D908B1012D3BD1A06B0188206888
:10424000C160A06B801CA063E08F401EE08730E05F
:104250002068816889070FD5E18F69B1B9F1010F35
:104260000AD1A16B0988C160A06B801CA063E08F9C
:10427000401EE0874FF0000920688168C90711D00F
:10428000B4F8461071B1C068216C0880206C801CA5
:104290002064B4F84600401EA4F8460000E09EE00A
:1042A0004FF00109FEF7EEFBC01BB04201D3701CBA
:1042B00074D1E08F0028CBD1B4F846000028C7D1D4
:1042C00075E008B1012D6BD1E08F0128A06B08D9F2
:1042D00021680088C860A06B801CA063E08F801EEE
:1042E00007E0216800780873A06B401CA063E08F92
:1042F000401EE08754E02068816889071AD5E18F65
:10430000C1B1B9F1010F15D1E18F0129A16B07D915
:104310000988C160A06B801CA063E08F801E06E04E
:1043200009780173A06B401CA063E08F401EE087FA
:104330004FF0000920688168C90728D0B4F84610FA
:1043400029B3B4F84610012914D9C068216C08803B
:10435000206C801C2064B4F84600801EA4F846003F
:10436000B4F84600012810D82068416841F4805113
:1043700041600AE0007B216C0870206C401C2064C6
:10438000B4F84600401EA4F846004FF00109FEF7BD
:1043900079FBC01BB04202D3701C01D012E08EB179
:1043A000E08F0028A7D1B4F846000028A3D13A46F0
:1043B0003146204601F0A9FB50B12020206684F848
:1043C0005C800CE084F85DA084F85C8003201DE72D
:1043D00084F85DA084F85C80206E0028F7D001206E
:1043E00014E710B5401EB0F1807F01D3012010BD4D
:1043F0004FF0E02460610F21601703F005FE0020FC
:10440000A06107202061002010BD704770477047F1
:1044100030B590F83C20012A45D0012280F83C209C
:10442000CA688B6822F440721A434B6822F4806297
:104430001A430B6822F400621A430B6922F480527B
:104440001A434B6922F400521A430B6B22F4804248
:104450001A430B8B22F4702242EA0342CB6922F00A
:1044600080521A43114D03680024AB4205D0104D11
:10447000AB4202D00F4DAB4210D10D8D22F4700231
:1044800042EA05520D6A22F080722A434D6A22F0F8
:1044900000722A43C96A22F000520A435A6480F823
:1044A0003C40002030BD022030BD0000002C014007
:1044B00000340140005001407047704770470000D1
:1044C000F0B590F83C20012A43D0012580F83C50FB
:1044D000022280F83D2003685A689C681E4E1F4FD8
:1044E000DFF87CC0B34203D0BB4201D0634504D1A6
:1044F00022F4700E4A6842EA0E02DFF868E002EA2F
:104500000E02D1F800E04EEA020EC3F804E00268A1
:10451000B24212D0B2F1804F0FD0134B9A420CD05E
:10452000124B9A4209D0124B9A4206D0BA4204D09A
:10453000104B9A4201D0624504D1896824F080036F
:104540001943916080F83D50002180F83C100846E6
:10455000F0BD0220F0BD0000002C014000340140FD
:10456000005001408FFFFFFD0004004000080040A4
:10457000000C004000400140704710B5040003D01B
:1045800094F83D0010B107E0012010BD002084F830
:104590003C00204600F022F8022084F83D00211D56
:1045A000206801F0F1FB012084F8480084F83E0007
:1045B00084F83F0084F8400084F8410084F8420009
:1045C00084F8430084F8440084F8450084F84600E9
:1045D00084F8470084F83D00002010BD08B51C4A4F
:1045E00001681C48914207D1016E41F400610166E7
:1045F000006E00F400601EE0B1F1804F14D0164A46
:1046000091421AD1816D41F002018165806D0022D5
:1046100000F00200009011461D20FEF799FABDE857
:1046200008401D20FEF786BA816D41F001018165C9
:10463000806D00F00100009008BD084A9142FBD156
:10464000816D41F004018165806D00F00400F2E7A6
:10465000002C01400010024000040040000800400F
:1046600070B5044690F83C00002501281CD00126B6
:1046700084F83C60022084F83D0022689068334B47
:10468000184020F47F4090600868B0F5005F2ED09D
:1046900016DC402849D009DCD0B1102818D02028D9
:1046A00016D0302849D113E0022070BD50282AD0FE
:1046B000602830D070280FD0B0F5805F3DD13DE04C
:1046C00010F00F0F39D10111A1F58031072934D82D
:1046D00022680146104625E0CB68D1E90121206817
:1046E00001F0CDFB2068816841F0770109E0CB68DB
:1046F000D1E90121206801F0C2FB2068816841F402
:10470000804181601AE0CA684968206801F006FEAD
:104710005021206806E0CA684968206801F032FE2E
:104720006021206801F0B6FB08E0CA68496820688B
:1047300001F0F4FD40212068F4E7012584F83D6094
:10474000002084F83C00284670BD000088FFCEFFA2
:1047500070472DE9F04104460068C66805694FF0CE
:104760000007A90713D5B10711D5F91E0161012072
:104770002077206880698007204602D0FFF7E8FF95
:1047800004E000F0F9F8204600F0BBF9277768074D
:1047900016D5700714D521686FF004000861022057
:1047A00020772068806910F4407F204602D0FFF710
:1047B000CFFF04E000F0E0F8204600F0A2F92777F0
:1047C000280715D5300713D521686FF00800086158
:1047D000042020772068C0698007204602D0FFF7B8
:1047E000B7FF04E000F0C8F8204600F08AF9277708
:1047F000E80616D5F00614D521686FF010000861A0
:10480000082020772068C06910F4407F204602D03D
:10481000FFF79EFF04E000F0AFF8204600F071F9CA
:104820002777E80708D0F00706D021686FF001006D
:104830000861204600F0F0F9280601D4A80408D544
:10484000300606D521686FF4025008612046FFF754
:10485000DDFDE80508D5300606D521686FF48070C7
:1048600008612046FFF7D1FD680608D5700606D519
:1048700021686FF040000861204600F0F9F9A806B1
:1048800008D5B00606D521686FF0200008612046E3
:10489000FFF7BDFDE80208D5F00206D521686FF4E8
:1048A000801008612046FFF708FEA80208D5B00274
:1048B00006D521686FF4001008612046FFF7FCFD63
:1048C000680208D5700206D521686FF4800008617F
:1048D0002046FFF7F3FD28020AD5300208D52168EB
:1048E0006FF4000008612046BDE8F041FFF744BEC8
:1048F000BDE8F08110B586B0044614216846FBF788
:10490000E3FD2368174C0021174A0220A34210D16F
:10491000D36C43F00403D364D26C02F0040205921A
:104920000D220092CDE90101CDE9031069460F483F
:1049300013E00F4CA34212D1D36C43F00203D364B3
:10494000D26C02F0020205924FF460720092CDE93F
:104950000101CDE9031069460648FDF773FF06B073
:1049600010BD0000002C014000100240000800486B
:104970000008004000040048704770B5044690F8F5
:104980003C0000260D4601280BD0012084F83C0095
:104990000C2A4AD007DC82B1042A20D0082A06D18A
:1049A00031E0022070BD102A53D0142A63D00126B2
:1049B000002084F83C00304670BD206801F074FA95
:1049C0002068816941F0080181612068816921F0D6
:1049D00004018161206881692A69114311E020681E
:1049E00001F0BCFA2068816941F4006181612068AE
:1049F000816921F480618161206881692A6941EAC5
:104A000002218161D4E7206801F0FCFA2068C169C5
:104A100041F00801C1612068C16921F00401C16150
:104A20002068C1692A69114311E0206801F03EFB4A
:104A30002068C16941F40061C1612068C16921F445
:104A40008061C1612068C1692A6941EA0221C161AE
:104A5000AEE7206801F07EFB2068016D41F008019F
:104A600001652068016D21F0040101652068016D78
:104A70002A69114311E0206801F0A8FB2068016D4C
:104A800041F4006101652068016D21F480610165D8
:104A90002068016D2A6941EA0221016588E710B5A5
:104AA000040003D094F83D0010B107E0012010BDD0
:104AB000002084F83C00204600F022F8022084F810
:104AC0003D00211D206801F05FF9012084F84800B5
:104AD00084F83E0084F83F0084F8400084F84100E8
:104AE00084F8420084F8430084F8440084F84500C8
:104AF00084F8460084F8470084F83D00002010BD8B
:104B00007047704770B50446022269B1042912D07B
:104B1000082917D00C291CD0102921D094F8430063
:104B2000012824D0012070BD94F83E000128F9D15D
:104B300084F83E201DE094F83F000128F2D184F86B
:104B40003F2016E094F840000128EBD184F8402083
:104B50000FE094F841000128E4D184F8412008E0F6
:104B600094F842000128DDD184F8422001E084F865
:104B700043200122206801F075F91D4920681D4A73
:104B80001D4B1E4D88420BD0904209D0984207D051
:104B90001B4EB04204D01B4EB04201D0A84203D1FC
:104BA000466C46F4004646642068884211D0B0F155
:104BB000804F0ED0144988420BD01449884208D047
:104BC0001349884205D0904203D0984201D0A842B0
:104BD00007D181680F4A1140062906D0B1F5803F00
:104BE00003D0016841F001010160002070BD0000A8
:104BF000002C0140003401400040014000500140C1
:104C0000004401400048014000040040000800400A
:104C1000000C004007000100704770B5044690F892
:104C20003C00012812D0012584F83C50022084F871
:104C30003D00204601F008FB01004FF0000007D0C6
:104C400084F83D5084F83C00012070BD022070BD06
:104C50002168CA6822F04002CA602168CA6822F44A
:104C60008042CA6084F83D5084F83C00002070BD4A
:104C7000704790F88410012918D0012180F8841021
:104C80002421C0F8881001680A680B6823F001032A
:104C90000B6022F000510022426603681960202157
:104CA000C0F8881080F884201046704702207047B2
:104CB00070B5044690F8840001281DD0012084F8C6
:104CC00084002420C4F8880020680568026822F067
:104CD000010202602068826822F060620A438260FA
:104CE000204601F075FB206805602020C4F888008C
:104CF000002084F8840070BD022070BD70B50446A9
:104D000090F8840001281DD0012084F8840024201C
:104D1000C4F8880020680568026822F00102026079
:104D20002068826822F060420A438260204601F0D7
:104D30004FFB206805602020C4F88800002084F81C
:104D4000840070BD022070BD10B5040003D0D4F8FB
:104D5000880010B107E0012010BD002084F8840015
:104D6000204600F027F82420C4F888002068016855
:104D700021F001010160A06A10B1204601F04AFB58
:104D8000204601F02BFC0128E6D02068416821F480
:104D9000904141602068816821F02A01816020688B
:104DA000016841F0010101602046BDE8104001F0BA
:104DB00095BB00002DE9F0419CB00446142115A8D4
:104DC000FBF782FB54216846FBF77EFB39492068DC
:104DD000394C072702260025884221D10120CDE940
:104DE00000056846FEF752FC08B1FDF774F8206E26
:104DF00040F480402066206E00F480401A90E06C01
:104E000040F00100E064E06CCDE9166500F00100BF
:104E10001A904FF4C060159015A94FF090401EE015
:104E20002649DFF89C80884220D16846009602958A
:104E3000FEF72CFC08B1FDF74EF8A06D40F40030F1
:104E4000A065A06D00F400301A90E06C40F0020004
:104E5000E064E06C00F002001A90182024E0CDE934
:104E60001857FDF7EFFC1CB0BDE8F08115498842EA
:104E7000F9D10420009003956846FEF707FC08B1BD
:104E8000FDF729F8A06D40F48020A065A06D00F426
:104E900080201A90E06C40F00200E064E06C00F0CA
:104EA00002001A904FF44060CDE91665159015A9DF
:104EB0004046D4E700380140001002400044004062
:104EC0000004004800480040FEE70000F0B5002361
:104ED0000A24302537261F4611E000BFB4EB107FAF
:104EE00002D905EB107C01E006EB107C01F813C041
:104EF00001EB430C00015B1C8CF80170DBB29342A8
:104F0000ECD3F0BD00EB8100006E00F0F84070477C
:104F10008068C0F3C00070478068C0F380007047AD
:104F20008068C0F380007047042303EAD15310B5B2
:104F300018444369C1F3045107248C40A3438A40B9
:104F40001343436110BD00EB8100016E21F000416D
:104F5000114301667047000010B58CB0002408941E
:104F60000994202168460A94FBF7AEFA26484FF0D0
:104F7000A041082201604FF44031C0E90114C4602F
:104F800001210461C0E9051204774477022202621C
:104F900080F824404FF48C62C2628A02026380F877
:104FA0003840C46380F8401044648464C0E913410D
:104FB000FDF778FA08B172B6FEE708A9124808941E
:104FC000FCF78CFF08B172B6FEE71048009006208F
:104FD0000190032002907F2003900420CDE9040477
:104FE00069460948FDF72AF808B172B6FEE70C20B9
:104FF000019069460448FDF721F8002801D072B6F7
:10500000FEE70CB010BD0000900100200400600815
:1050100030B589B020216846FBF756FA1B481A497B
:10502000002401604FF44031C0E90114C46004253C
:105030000461C0E90545047744770121016280F8E5
:1050400024404FF48C61C1622902016380F838402A
:10505000C46380F84040FDF725FA08B172B6FEE758
:105060000B4800900620CDE901047F200594CDE98E
:10507000030569460548FCF7E1FF002801D072B638
:10508000FEE709B030BD000000010050FC01002027
:105090000008302E30B58BB00024089409942021EC
:1050A00068460A94FBF710FA1D481C490425016064
:1050B0004FF44031C0E90114C4600461C0E9054502
:1050C000047744770121016280F82440C4620463BC
:1050D00080F83840C46380F84040FDF7E3F908B138
:1050E00072B6FEE708A90E480894FCF7F7FE08B16F
:1050F00072B6FEE70B4800900620CDE901047F2040
:105100000594CDE9030569460548FCF797FF00289B
:1051100001D072B6FEE70BB030BD000000040050B5
:1051200068020020020030042DE9F04F87B01421FE
:105130006846FBF7C9F96D48C16C41F00401C164D0
:10514000C16C01F004010591C16C41F02001C16402
:10515000C16C01F020010591C16C41F04001C164B6
:10516000C16C01F040010591C16C41F00101C164C5
:10517000C16C01F001010591C16C41F00201C164F3
:10518000C16C01F002010591C16C41F00801C164DC
:10519000C06CDFF85CB100F00800059000224FF40D
:1051A0000D515846FDF768FC524F4FF480660022BF
:1051B00031463846FDF760FC002210214FF0904048
:1051C000FDF75AFC4FF4807A012251464FF090408F
:1051D000FDF752FC002204214748FDF74DFC012554
:1051E0004FF400590024CDE90095CDE902546946F9
:1051F0005846FDF727FB0096CDE90154694638462D
:105200000394FDF71FFB02260096CDE901640827F1
:10521000CDE9034769465846FDF714FB0097CDE9F1
:1052200001640C20CDE9034069464FF09040FDF742
:1052300009FB10200090CDE9015469464FF09040E1
:105240000394FDF7FFFA80270097CDE901644FF042
:105250000508CDE9034869464FF09040FDF7F2FAA2
:10526000CDF80090CDE90164CDE90348DFF88C80EA
:1052700069464046FDF7E6FA4FF4A0700090CDE98C
:105280000154694658460394FDF7DCFA00974FF441
:105290008817CDE9017469465846FDF7D3FA6802CC
:1052A000CDE9000569465846CDE90245FDF7CAFA41
:1052B000CDF800A00396CDE9015469464FF0904027
:1052C000FDF7C0FA04200090CDE9015469460A4870
:1052D0000394FDF7B7FA6020CDE900076946029410
:1052E0004046FDF7AFFA07B0BDE8F08F001002406E
:1052F0000008004800180048000C0048000400485E
:10530000114810B50F4901604FF4827141600021CE
:105310004FF47062C0E902120122C0E90412520285
:1053200082612822C0E9072107224162C0E90A12EE
:1053300001634163FEF774FE002801D072B6FEE7F8
:1053400010BD0000003C0040D402002010B59CB00D
:10535000002419941A9417941894149415941C21E9
:105360000DA81694FBF7B0F834216846FBF7ACF8AB
:1053700034483349C0E900142021816041F2990189
:10538000C0E9031444618461FFF7F7F808B172B60D
:10539000FEE74FF48050179017A92A48FFF760F9ED
:1053A00008B172B6FEE72748FFF779FB08B172B67D
:1053B000FEE780201494CDE9154014A92148FFF799
:1053C0007FF808B172B6FEE76020CDE90D040F94B6
:1053D00010941194129400220DA91A481394FFF707
:1053E000CCFA08B172B6FEE708220DA91548FFF7FE
:1053F000C4FA08B172B6FEE70C220DA91148FFF7F6
:10540000BCFA08B172B6FEE700944FF40050CDE943
:10541000044003940003CDE90840019402940694EB
:1054200007940A940B94694606480C94FEF7F0FF23
:1054300008B172B6FEE70348FFF75CFA1CB010BD76
:10544000002C01403803002010B58CB000240594D6
:1054500006940794142168460894FBF735F81A4817
:1054600009940A944FF080410B94C0E9001441F272
:105470009901C0E9024104618461FFF77EF808B137
:1054800072B6FEE74FF48050059005A90E48FFF76D
:10549000E7F808B172B6FEE71020CDE90040694692
:1054A0000948FFF7BAFB08B172B6FEE72020099061
:1054B00080200B9009A90448FFF702F8002801D0CA
:1054C00072B6FEE70CB010BD8403002010B588B0A2
:1054D00000241748009401940294039404940594C2
:1054E0001249069401600921C0E9011442F2331106
:1054F000C0E903148461FFF740F808B172B6FEE713
:105500004FF48050009069460948FFF7A9F808B1A8
:1055100072B6FEE7049404A905480694FEF7D0FF8E
:10552000002801D072B6FEE708B010BD00040040AC
:10553000D003002030B58FB000240794089409945C
:105540000A940B940C941C2168460D94FAF7BCFF46
:1055500026482549202580E8320041F29901C0E91A
:1055600003148461FFF709F808B172B6FEE74FF43F
:105570008050079007A91D48FFF772F808B172B66E
:10558000FEE71A48FFF78BFA08B172B6FEE78020F3
:105590000D900BA90B951548FEF792FF08B172B656
:1055A000FEE76020CDE900040294042269460F481A
:1055B0000494FFF7E2F908B172B6FEE708226946E3
:1055C0000A48FFF7DAF908B172B6FEE70C2269461D
:1055D0000648FFF7D2F908B172B6FEE70348FFF7B5
:1055E00089F90FB030BD0000000800401C04002005
:1055F000174810B5154901604FF4E13141600021B1
:1056000081600C22C160C0E904128161C161016244
:1056100041628162FFF798FB08B172B6FEE7002194
:105620000B48FFF76BFB08B172B6FEE70021084894
:10563000FFF73EFB08B172B6FEE70548FFF719FB1E
:10564000002801D072B6FEE710BD0000003801400E
:1056500068040020174810B5154901604FF4E13186
:105660004160002181600C22C160C0E904128161A7
:10567000C161016241628162FFF766FB08B172B6E7
:10568000FEE700210B48FFF739FB08B172B6FEE7D1
:1056900000210848FFF70CFB08B172B6FEE7054889
:1056A000FFF7E7FA002801D072B6FEE710BD000050
:1056B00000440040FC040020174810B51549016063
:1056C0004FF4E1314160002181600C22C160C0E9EA
:1056D00004128161C161016241628162FFF734FBA2
:1056E00008B172B6FEE700210B48FFF707FB08B1CF
:1056F00072B6FEE700210848FFF7DAFA08B172B681
:10570000FEE70548FFF7B5FA002801D072B6FEE7BC
:1057100010BD0000004800409005002010B5002298
:105720000F49104801F0FAFB08B1FCF7D4FB0E4911
:105730000C4801F0CAFD08B1FCF7CDFB0B49094844
:1057400001F038FA08B1FCF7C6FB064801F038FE54
:10575000002803D0BDE81040FCF7BDBB10BD000021
:1057600014000020340B00205801002068000020A5
:10577000FEE7FEE72DE9FC5F04464BF68F7848F222
:10578000800740F68F7648F60F7A4FF0000BB3E1B2
:10579000B0F8441001F00F05082D02D30120BDE838
:1057A000FC9FEDB330F82510019109047ED530F847
:1057B0002510314041F0800120F8251005EB8500CF
:1057C00004EBC00000F5A87990F85C0100286ED0C9
:1057D00099F8030002286BD099F80020216831F86D
:1057E000220048F68F73184048F2C003184321F88E
:1057F000220099F80010206830F821205204B0F8F7
:10580000502002EB000379D540F2024202EBC101C5
:10581000595A8905890D009171D0B9F80820C1E065
:10582000FFE7C9062AD4028802EA0A0242F40041CC
:105830000180206804F11005B0F85010227C01446A
:1058400040F2024000EBC200085AC0F30900E062D7
:10585000616A0844606200212046FDF7FDF9207B63
:10586000002894D0A869002891D1207B40F08001C5
:105870002068A0F84C1084F80CB03DE1018804F5D4
:10588000A8750A053CD5B0F850100A18297840F2DE
:10589000064000EBC100105AC0F30900E861082877
:1058A0001BD02168088800EA080002E09DE055E06E
:1058B00066E080F48050384308802168088848F604
:1058C000BF72104080F010003843088021680888BB
:1058D000304040F08000088014E10823EA8804F595
:1058E0002671206802F049FB21680888304040F0AA
:1058F000800008802046FDF734FEFDE047E045E0EB
:105900000904BAD50188314041F080010180206846
:10591000B0F850100A18297840F2064000EBC10098
:10592000105A83059B0DEB610FD069690029A4D043
:10593000EA88206802F021FBE96968690844686127
:1059400000212046FDF791F9D6E02168088800EA99
:10595000080080F4405038430880CDE02068B0F85B
:10596000501099F800300A1840F2064101EBC301CB
:10597000515A8905890D009119D0B9F8062011E016
:1059800049462046019AFDF7CCF900900FE040F21D
:10599000064202EBC101595A8905890D009106D0D2
:1059A000B9F80A20D9F81410009B02F0E6FAD9F8E9
:1059B0001C1000980144C9F81C10D9F8180020B137
:1059C000D9F810100098814205D999F800102046A6
:1059D000FDF74BF909E0D9F8141000980144C9F813
:1059E00014104946206802F0FFF8019800062ED5F1
:1059F00005EB850004EBC001206830F8252002EAA1
:105A00000A0242F4004220F82520C87C1031012807
:105A10001ED00198C0056BD42068B0F85020131830
:105A20000A7840F2024000EBC200185A8A69C0F3BB
:105A30000900824255D9121A8A6154D04A69024437
:105A40004A61CA691044C861206802F0CDF853E089
:105A5000C1F818B0087B5A4610B30198400620D50B
:105A6000487810B1012812D03DE02068B0F85020ED
:105A700010440A7800EBC200B0F80224C2F3090215
:105A8000A0F80224B0F8022442F4004206E02068A4
:105A9000B0F8503018440B7800EBC300A0F8022493
:105AA00021E04B78206813B1012B11D01BE0B0F836
:105AB000502010440A7800EBC200B0F80624C2F36C
:105AC0000902A0F80624B0F8062442F4004205E0DA
:105AD000B0F8503018440B7800EBC300A0F806244F
